{
  "contractName": "CompanyContract",
  "abi": [
    {
      "inputs": [
        {
          "internalType": "string",
          "name": "name",
          "type": "string"
        },
        {
          "internalType": "string",
          "name": "registrationId",
          "type": "string"
        },
        {
          "internalType": "string",
          "name": "email",
          "type": "string"
        }
      ],
      "name": "createCompany",
      "outputs": [
        {
          "internalType": "string",
          "name": "",
          "type": "string"
        }
      ],
      "stateMutability": "nonpayable",
      "type": "function"
    },
    {
      "inputs": [
        {
          "internalType": "int256",
          "name": "inputId",
          "type": "int256"
        }
      ],
      "name": "searchCompanyById",
      "outputs": [
        {
          "internalType": "string",
          "name": "",
          "type": "string"
        }
      ],
      "stateMutability": "view",
      "type": "function",
      "constant": true
    }
  ],
  "bytecode": "0x60806040526000805534801561001457600080fd5b50610720806100246000396000f3fe608060405234801561001057600080fd5b50600436106100365760003560e01c80637b60626d1461003b5780638ef3b7391461006b575b600080fd5b6100556004803603810190610050919061045d565b61009b565b604051610062919061058c565b60405180910390f35b610085600480360381019061008091906105e4565b610159565b604051610092919061058c565b60405180910390f35b60606000808154809291906100af90610640565b919050555060405180608001604052806000548152602001858152602001848152602001838152506001600080548152602001908152602001600020600082015181600001556020820151816001019080519060200190610111929190610260565b50604082015181600201908051906020019061012e929190610260565b50606082015181600301908051906020019061014b929190610260565b509050508390509392505050565b606060006040518060200160405280600081525090506000600190505b6000548113610256578360016000838152602001908152602001600020600001541415610243576001600082815260200190815260200160002060010180546101be906106b8565b80601f01602080910402602001604051908101604052809291908181526020018280546101ea906106b8565b80156102375780601f1061020c57610100808354040283529160200191610237565b820191906000526020600020905b81548152906001019060200180831161021a57829003601f168201915b50505050509150610256565b808061024e90610640565b915050610176565b5080915050919050565b82805461026c906106b8565b90600052602060002090601f01602090048101928261028e57600085556102d5565b82601f106102a757805160ff19168380011785556102d5565b828001600101855582156102d5579182015b828111156102d45782518255916020019190600101906102b9565b5b5090506102e291906102e6565b5090565b5b808211156102ff5760008160009055506001016102e7565b5090565b6000604051905090565b600080fd5b600080fd5b600080fd5b600080fd5b6000601f19601f8301169050919050565b7f4e487b7100000000000000000000000000000000000000000000000000000000600052604160045260246000fd5b61036a82610321565b810181811067ffffffffffffffff8211171561038957610388610332565b5b80604052505050565b600061039c610303565b90506103a88282610361565b919050565b600067ffffffffffffffff8211156103c8576103c7610332565b5b6103d182610321565b9050602081019050919050565b82818337600083830152505050565b60006104006103fb846103ad565b610392565b90508281526020810184848401111561041c5761041b61031c565b5b6104278482856103de565b509392505050565b600082601f83011261044457610443610317565b5b81356104548482602086016103ed565b91505092915050565b6000806000606084860312156104765761047561030d565b5b600084013567ffffffffffffffff81111561049457610493610312565b5b6104a08682870161042f565b935050602084013567ffffffffffffffff8111156104c1576104c0610312565b5b6104cd8682870161042f565b925050604084013567ffffffffffffffff8111156104ee576104ed610312565b5b6104fa8682870161042f565b9150509250925092565b600081519050919050565b600082825260208201905092915050565b60005b8381101561053e578082015181840152602081019050610523565b8381111561054d576000848401525b50505050565b600061055e82610504565b610568818561050f565b9350610578818560208601610520565b61058181610321565b840191505092915050565b600060208201905081810360008301526105a68184610553565b905092915050565b6000819050919050565b6105c1816105ae565b81146105cc57600080fd5b50565b6000813590506105de816105b8565b92915050565b6000602082840312156105fa576105f961030d565b5b6000610608848285016105cf565b91505092915050565b7f4e487b7100000000000000000000000000000000000000000000000000000000600052601160045260246000fd5b600061064b826105ae565b91507f7fffffffffffffffffffffffffffffffffffffffffffffffffffffffffffffff82141561067e5761067d610611565b5b600182019050919050565b7f4e487b7100000000000000000000000000000000000000000000000000000000600052602260045260246000fd5b600060028204905060018216806106d057607f821691505b602082108114156106e4576106e3610689565b5b5091905056fea264697066735822122044c00562f2fbac08192a1f2bc00b0d37e5ad5bebcce565759e3e76da66f7b71964736f6c634300080b0033",
  "immutableReferences": {},
  "source": "// SPDX-License-Identifier: MIT\npragma solidity ^0.8.11;\n\ncontract CompanyContract {\n\n  struct Company {\n        int id;\n        string name;\n        string registrationId;\n        string email;\n    }\n\n    int companyCount = 0;\n\n    mapping(int => Company) company;\n\n    function createCompany(string memory name, string memory registrationId, string memory email)\n        public returns(string memory) {\n            companyCount++;\n            company[companyCount] = Company(\n                                        companyCount,\n                                        name,\n                                        registrationId,\n                                        email\n                                    );\n            return name;\n    }\n\n    function searchCompanyById(int inputId) public view returns(string memory) {\n\n        string memory company_name = '';\n\n        for(int i = 1; i <= companyCount; i++) {\n            if(company[i].id == inputId) {\n                company_name = company[i].name;\n                break;\n            }\n        }\n        return company_name;\n    }\n}\n",
  "sourcePath": "/Users/neethu/Work/Upskill/BlockChain1/employee_management_web3/src/apps/block_chain_contracts/contracts/CompanyContract.sol",
  "compiler": {
    "name": "solc",
    "version": "0.8.11+commit.d7f03943.Emscripten.clang"
  },
  "schemaVersion": "3.4.4",
  "updatedAt": "2022-02-15T06:55:43.241Z",
  "networkType": "ethereum",
  "devdoc": {
    "kind": "dev",
    "methods": {},
    "version": 1
  },
  "userdoc": {
    "kind": "user",
    "methods": {},
    "version": 1
  }
}